{
  "contractName": "Registry",
  "abi": [
    {
      "anonymous": false,
      "inputs": [
        {
          "indexed": false,
          "name": "issuer",
          "type": "address"
        },
        {
          "indexed": false,
          "name": "subject",
          "type": "address"
        },
        {
          "indexed": false,
          "name": "action",
          "type": "bytes32"
        },
        {
          "indexed": false,
          "name": "contentType",
          "type": "bytes32"
        },
        {
          "indexed": false,
          "name": "cid",
          "type": "string"
        },
        {
          "indexed": false,
          "name": "prevblock",
          "type": "uint256"
        }
      ],
      "name": "LogPublish",
      "type": "event"
    },
    {
      "anonymous": false,
      "inputs": [
        {
          "indexed": false,
          "name": "issuer",
          "type": "address"
        },
        {
          "indexed": false,
          "name": "message",
          "type": "string"
        }
      ],
      "name": "LogPublishString",
      "type": "event"
    },
    {
      "constant": false,
      "inputs": [
        {
          "name": "_subjects",
          "type": "address[]"
        },
        {
          "name": "_actions",
          "type": "bytes32[]"
        },
        {
          "name": "_contentTypes",
          "type": "bytes32[]"
        },
        {
          "name": "_cids",
          "type": "string"
        }
      ],
      "name": "publish",
      "outputs": [],
      "payable": false,
      "stateMutability": "nonpayable",
      "type": "function"
    },
    {
      "constant": false,
      "inputs": [
        {
          "name": "_message",
          "type": "string"
        }
      ],
      "name": "publishString",
      "outputs": [],
      "payable": false,
      "stateMutability": "nonpayable",
      "type": "function"
    }
  ],
  "bytecode": "0x606060405243600055341561001357600080fd5b610792806100226000396000f30060606040526004361061004c576000357c0100000000000000000000000000000000000000000000000000000000900463ffffffff1680635d89957d14610051578063e4fe7dba1461016e575b600080fd5b341561005c57600080fd5b61016c600480803590602001908201803590602001908080602002602001604051908101604052809392919081815260200183836020028082843782019150505050505091908035906020019082018035906020019080806020026020016040519081016040528093929190818152602001838360200280828437820191505050505050919080359060200190820180359060200190808060200260200160405190810160405280939291908181526020018383602002808284378201915050505050509190803590602001908201803590602001908080601f016020809104026020016040519081016040528093929190818152602001838380828437820191505050505050919050506101cb565b005b341561017957600080fd5b6101c9600480803590602001908201803590602001908080601f0160208091040260200160405190810160405280939291908181526020018383808284378201915050505050509190505061041a565b005b6101d3610738565b60006101dd610752565b855187511480156101ef575084518651145b15156101fa57600080fd5b610203846104ed565b9250600091505b84518260ff1610156104115761026e61026961025a6040805190810160405280600181526020017f7c000000000000000000000000000000000000000000000000000000000000008152506104ed565b8561051b90919063ffffffff16565b610535565b9050600081511415151561028157600080fd5b7f607cfe2026179aa59937b0a37d41770da8485ecbcbbd4fb3e1c42295be6c987d33888460ff168151811015156102b457fe5b90602001906020020151888560ff168151811015156102cf57fe5b90602001906020020151888660ff168151811015156102ea57fe5b9060200190602002015185600054604051808773ffffffffffffffffffffffffffffffffffffffff1673ffffffffffffffffffffffffffffffffffffffff1681526020018673ffffffffffffffffffffffffffffffffffffffff1673ffffffffffffffffffffffffffffffffffffffff1681526020018560001916600019168152602001846000191660001916815260200180602001838152602001828103825284818151815260200191508051906020019080838360005b838110156103be5780820151818401526020810190506103a3565b50505050905090810190601f1680156103eb5780820380516001836020036101000a031916815260200191505b5097505050505050505060405180910390a143600081905550818060010192505061020a565b50505050505050565b7ff7277eb52116a7ef7a3bfaf251c2371c3444f362b69f95d9b7e604ff289b48343382604051808373ffffffffffffffffffffffffffffffffffffffff1673ffffffffffffffffffffffffffffffffffffffff16815260200180602001828103825283818151815260200191508051906020019080838360005b838110156104af578082015181840152602081019050610494565b50505050905090810190601f1680156104dc5780820380516001836020036101000a031916815260200191505b50935050505060405180910390a150565b6104f5610738565b600060208301905060408051908101604052808451815260200182815250915050919050565b610523610738565b61052e838383610593565b5092915050565b61053d610752565b610545610752565b600083600001516040518059106105595750595b9080825280601f01601f191660200182016040525091506020820190506105898185602001518660000151610631565b8192505050919050565b61059b610738565b60006105b9856000015186602001518660000151876020015161067c565b905084602001518360200181815250508460200151810383600001818152505084600001518560200151018114156105fb576000856000018181525050610626565b8360000151836000015101856000018181510391508181525050836000015181018560200181815250505b829150509392505050565b60005b6020821015156106595782518452602084019350602083019250602082039150610634565b6001826020036101000a0390508019835116818551168181178652505050505050565b60008060008060008887111515610726576020871115156106dd5760018760200360080260020a031980875116888b038a018a96505b8183885116146106d2576001870196508060018803106106b2578b8b0196505b50505083945061072c565b8686209150879350600092505b868903831115156107255786842090508060001916826000191614156107125783945061072c565b60018401935082806001019350506106ea565b5b88880194505b50505050949350505050565b604080519081016040528060008152602001600081525090565b6020604051908101604052806000815250905600a165627a7a723058207d1d35286861c1efb2683c78b2b818ee274e76dc47d58caa92d7a6356cfcb6c00029",
  "source": "pragma solidity 0.4.19;\nimport \"./utils/strings.sol\"; // github.com/Arachnid/solidity-stringutils/strings.sol\n\n\ncontract Registry {\n    using strings for *;\n\n    // todo: choose what to index\n    event LogPublish(address issuer, address subject, bytes32 action, bytes32 contentType, string cid, uint prevblock);\n    event LogPublishString(address issuer, string message);\n\n    uint currBlock = block.number;\n    // recognized actions == CRUD.\n    function publish(address[] _subjects, bytes32[] _actions, bytes32[] _contentTypes, string _cids) public {\n        require(_subjects.length == _actions.length && _actions.length == _contentTypes.length);\n        var prepCids = _cids.toSlice();\n        for (uint8 i = 0; i < _contentTypes.length; i++) {\n            string memory cid = prepCids.split(\"|\".toSlice()).toString();\n            require(bytes(cid).length != 0);\n            LogPublish(msg.sender, _subjects[i], _actions[i], _contentTypes[i], cid, currBlock);\n            currBlock = block.number;\n        }\n    }\n\n    // a fallback: generic string publisher in case the the more specific version is not sufficient.\n    function publishString(string _message) public {\n        LogPublishString(msg.sender, _message);\n    }\n}\n",
  "sourcePath": "/home/nihar/contracts-registry/contracts/Registry.sol",
  "compiler": {
    "name": "solc",
    "version": "0.4.19+commit.c4cbbb05.Emscripten.clang"
  },
  "schemaVersion": "1.0.1",
  "updatedAt": "2018-04-17T18:26:17.133Z"
}