{
  "contractName": "Registry",
  "abi": [
    {
      "constant": true,
      "inputs": [],
      "name": "prevBlock",
      "outputs": [
        {
          "name": "",
          "type": "uint256"
        }
      ],
      "payable": false,
      "stateMutability": "view",
      "type": "function"
    },
    {
      "anonymous": false,
      "inputs": [
        {
          "indexed": true,
          "name": "issuer",
          "type": "address"
        },
        {
          "indexed": true,
          "name": "subject",
          "type": "address"
        },
        {
          "indexed": false,
          "name": "action",
          "type": "bytes32"
        },
        {
          "indexed": true,
          "name": "contentType",
          "type": "bytes32"
        },
        {
          "indexed": false,
          "name": "cid",
          "type": "string"
        },
        {
          "indexed": false,
          "name": "prevBlock",
          "type": "uint256"
        }
      ],
      "name": "LogPublish",
      "type": "event"
    },
    {
      "anonymous": false,
      "inputs": [
        {
          "indexed": true,
          "name": "issuer",
          "type": "address"
        },
        {
          "indexed": false,
          "name": "message",
          "type": "string"
        }
      ],
      "name": "LogPublishString",
      "type": "event"
    },
    {
      "constant": false,
      "inputs": [
        {
          "name": "_subjects",
          "type": "address[]"
        },
        {
          "name": "_actions",
          "type": "bytes32[]"
        },
        {
          "name": "_contentTypes",
          "type": "bytes32[]"
        },
        {
          "name": "_cids",
          "type": "string"
        }
      ],
      "name": "publish",
      "outputs": [],
      "payable": false,
      "stateMutability": "nonpayable",
      "type": "function"
    },
    {
      "constant": false,
      "inputs": [
        {
          "name": "_message",
          "type": "string"
        }
      ],
      "name": "publishString",
      "outputs": [],
      "payable": false,
      "stateMutability": "nonpayable",
      "type": "function"
    }
  ],
  "bytecode": "0x608060405234801561001057600080fd5b506107ad806100206000396000f300608060405260043610610057576000357c0100000000000000000000000000000000000000000000000000000000900463ffffffff1680635d89957d1461005c5780639d129afd1461018e578063e4fe7dba146101b9575b600080fd5b34801561006857600080fd5b5061018c600480360381019080803590602001908201803590602001908080602002602001604051908101604052809392919081815260200183836020028082843782019150505050505091929192908035906020019082018035906020019080806020026020016040519081016040528093929190818152602001838360200280828437820191505050505050919291929080359060200190820180359060200190808060200260200160405190810160405280939291908181526020018383602002808284378201915050505050509192919290803590602001908201803590602001908080601f0160208091040260200160405190810160405280939291908181526020018383808284378201915050505050509192919290505050610222565b005b34801561019a57600080fd5b506101a3610432565b6040518082815260200191505060405180910390f35b3480156101c557600080fd5b50610220600480360381019080803590602001908201803590602001908080601f0160208091040260200160405190810160405280939291908181526020018383808284378201915050505050509192919290505050610438565b005b61022a610767565b6000606085518751148015610240575084518651145b151561024b57600080fd5b610254846104ee565b9250600091505b84518260ff161015610429576102bf6102ba6102ab6040805190810160405280600181526020017f7c000000000000000000000000000000000000000000000000000000000000008152506104ee565b8561051c90919063ffffffff16565b610536565b905060008151141515156102d257600080fd5b848260ff168151811015156102e357fe5b9060200190602002015160001916878360ff1681518110151561030257fe5b9060200190602002015173ffffffffffffffffffffffffffffffffffffffff163373ffffffffffffffffffffffffffffffffffffffff167f607cfe2026179aa59937b0a37d41770da8485ecbcbbd4fb3e1c42295be6c987d898660ff1681518110151561036b57fe5b906020019060200201518560005460405180846000191660001916815260200180602001838152602001828103825284818151815260200191508051906020019080838360005b838110156103cd5780820151818401526020810190506103b2565b50505050905090810190601f1680156103fa5780820380516001836020036101000a031916815260200191505b5094505050505060405180910390a44360005414151561041c57436000819055505b818060010192505061025b565b50505050505050565b60005481565b3373ffffffffffffffffffffffffffffffffffffffff167ff7277eb52116a7ef7a3bfaf251c2371c3444f362b69f95d9b7e604ff289b4834826040518080602001828103825283818151815260200191508051906020019080838360005b838110156104b1578082015181840152602081019050610496565b50505050905090810190601f1680156104de5780820380516001836020036101000a031916815260200191505b509250505060405180910390a250565b6104f6610767565b600060208301905060408051908101604052808451815260200182815250915050919050565b610524610767565b61052f838383610598565b5092915050565b606080600083600001516040519080825280601f01601f1916602001820160405280156105725781602001602082028038833980820191505090505b50915060208201905061058e8185602001518660000151610636565b8192505050919050565b6105a0610767565b60006105be8560000151866020015186600001518760200151610681565b9050846020015183602001818152505084602001518103836000018181525050846000015185602001510181141561060057600085600001818152505061062b565b8360000151836000015101856000018181510391508181525050836000015181018560200181815250505b829150509392505050565b60005b60208210151561065e5782518452602084019350602083019250602082039150610639565b6001826020036101000a0390508019835116818551168181178652505050505050565b60008060008060008060008060008b97508c8b1115156107515760208b11151561070b5760018b60200360080260020a03196001029550858a511694508a8d8d010393508588511692505b846000191683600019161415156107035783881015156106f0578c8c019850610757565b87806001019850508588511692506106cc565b879850610757565b8a8a209150600096505b8a8d0387111515610750578a8820905080600019168260001916141561073d57879850610757565b6001880197508680600101975050610715565b5b8c8c0198505b5050505050505050949350505050565b6040805190810160405280600081526020016000815250905600a165627a7a72305820e599fa5061c12c5f28c99fc233bbcaba709db254983d5dd2416d51a5410e26d30029",
  "source": "pragma solidity ^0.4.19;\nimport \"./utils/strings.sol\"; // github.com/Arachnid/solidity-stringutils/strings.sol\n\n\ncontract Registry {\n    using strings for *;\n\n    // solhint-disable-next-line max-line-length\n    event LogPublish(address indexed issuer, address indexed subject, bytes32 action, bytes32 indexed contentType, string cid, uint256 prevBlock);\n    event LogPublishString(address indexed issuer, string message);\n\n    uint256 public prevBlock; // zero == first publish\n\n    // recognized actions == CRUD.\n    function publish(address[] _subjects, bytes32[] _actions, bytes32[] _contentTypes, string _cids) public {\n        require(_subjects.length == _actions.length && _actions.length == _contentTypes.length);\n\n        var prepCids = _cids.toSlice();\n        for (uint8 i = 0; i < _contentTypes.length; i++) {\n            string memory cid = prepCids.split(\"|\".toSlice()).toString();\n            require(bytes(cid).length != 0);\n            emit LogPublish(msg.sender, _subjects[i], _actions[i], _contentTypes[i], cid, prevBlock);\n            if (prevBlock != block.number) {\n                prevBlock = block.number;\n            }\n        }\n    }\n\n    // a fallback: generic string publisher in case the the more specific version is not sufficient in future.\n    function publishString(string _message) public {\n        emit LogPublishString(msg.sender, _message);\n    }\n}\n",
  "sourcePath": "/Users/simondlr/code/ethereum/contracts-registry/contracts/Registry.sol",
  "compiler": {
    "name": "solc",
    "version": "0.4.23+commit.124ca40d.Emscripten.clang"
  },
  "schemaVersion": "2.0.0",
  "updatedAt": "2018-05-03T18:41:50.382Z"
}